{
  "_format": "hh-sol-artifact-1",
  "contractName": "FolderNFT",
  "sourceName": "contracts/FILDOS.sol",
  "abi": [
    {
      "inputs": [
        {
          "internalType": "address",
          "name": "_paymentToken",
          "type": "address"
        }
      ],
      "stateMutability": "nonpayable",
      "type": "constructor"
    },
    {
      "inputs": [],
      "name": "ERC721EnumerableForbiddenBatchMint",
      "type": "error"
    },
    {
      "inputs": [
        {
          "internalType": "address",
          "name": "sender",
          "type": "address"
        },
        {
          "internalType": "uint256",
          "name": "tokenId",
          "type": "uint256"
        },
        {
          "internalType": "address",
          "name": "owner",
          "type": "address"
        }
      ],
      "name": "ERC721IncorrectOwner",
      "type": "error"
    },
    {
      "inputs": [
        {
          "internalType": "address",
          "name": "operator",
          "type": "address"
        },
        {
          "internalType": "uint256",
          "name": "tokenId",
          "type": "uint256"
        }
      ],
      "name": "ERC721InsufficientApproval",
      "type": "error"
    },
    {
      "inputs": [
        {
          "internalType": "address",
          "name": "approver",
          "type": "address"
        }
      ],
      "name": "ERC721InvalidApprover",
      "type": "error"
    },
    {
      "inputs": [
        {
          "internalType": "address",
          "name": "operator",
          "type": "address"
        }
      ],
      "name": "ERC721InvalidOperator",
      "type": "error"
    },
    {
      "inputs": [
        {
          "internalType": "address",
          "name": "owner",
          "type": "address"
        }
      ],
      "name": "ERC721InvalidOwner",
      "type": "error"
    },
    {
      "inputs": [
        {
          "internalType": "address",
          "name": "receiver",
          "type": "address"
        }
      ],
      "name": "ERC721InvalidReceiver",
      "type": "error"
    },
    {
      "inputs": [
        {
          "internalType": "address",
          "name": "sender",
          "type": "address"
        }
      ],
      "name": "ERC721InvalidSender",
      "type": "error"
    },
    {
      "inputs": [
        {
          "internalType": "uint256",
          "name": "tokenId",
          "type": "uint256"
        }
      ],
      "name": "ERC721NonexistentToken",
      "type": "error"
    },
    {
      "inputs": [
        {
          "internalType": "address",
          "name": "owner",
          "type": "address"
        },
        {
          "internalType": "uint256",
          "name": "index",
          "type": "uint256"
        }
      ],
      "name": "ERC721OutOfBoundsIndex",
      "type": "error"
    },
    {
      "inputs": [
        {
          "internalType": "uint256",
          "name": "tokenId",
          "type": "uint256"
        }
      ],
      "name": "FolderDoesNotExist",
      "type": "error"
    },
    {
      "inputs": [
        {
          "internalType": "uint256",
          "name": "required",
          "type": "uint256"
        },
        {
          "internalType": "uint256",
          "name": "provided",
          "type": "uint256"
        }
      ],
      "name": "InsufficientPayment",
      "type": "error"
    },
    {
      "inputs": [
        {
          "internalType": "string",
          "name": "cid",
          "type": "string"
        }
      ],
      "name": "InvalidCID",
      "type": "error"
    },
    {
      "inputs": [],
      "name": "InvalidPaymentToken",
      "type": "error"
    },
    {
      "inputs": [
        {
          "internalType": "uint256",
          "name": "tokenId",
          "type": "uint256"
        }
      ],
      "name": "NotFolderAccess",
      "type": "error"
    },
    {
      "inputs": [
        {
          "internalType": "uint256",
          "name": "tokenId",
          "type": "uint256"
        }
      ],
      "name": "NotFolderOwner",
      "type": "error"
    },
    {
      "inputs": [
        {
          "internalType": "uint256",
          "name": "shareId",
          "type": "uint256"
        }
      ],
      "name": "NotShareOwner",
      "type": "error"
    },
    {
      "inputs": [
        {
          "internalType": "address",
          "name": "owner",
          "type": "address"
        }
      ],
      "name": "OwnableInvalidOwner",
      "type": "error"
    },
    {
      "inputs": [
        {
          "internalType": "address",
          "name": "account",
          "type": "address"
        }
      ],
      "name": "OwnableUnauthorizedAccount",
      "type": "error"
    },
    {
      "inputs": [
        {
          "internalType": "uint256",
          "name": "shareId",
          "type": "uint256"
        }
      ],
      "name": "ShareNotFound",
      "type": "error"
    },
    {
      "inputs": [
        {
          "internalType": "uint256",
          "name": "tokenId",
          "type": "uint256"
        }
      ],
      "name": "ViewingPriceNotSet",
      "type": "error"
    },
    {
      "anonymous": false,
      "inputs": [
        {
          "indexed": true,
          "internalType": "address",
          "name": "owner",
          "type": "address"
        },
        {
          "indexed": true,
          "internalType": "address",
          "name": "approved",
          "type": "address"
        },
        {
          "indexed": true,
          "internalType": "uint256",
          "name": "tokenId",
          "type": "uint256"
        }
      ],
      "name": "Approval",
      "type": "event"
    },
    {
      "anonymous": false,
      "inputs": [
        {
          "indexed": true,
          "internalType": "address",
          "name": "owner",
          "type": "address"
        },
        {
          "indexed": true,
          "internalType": "address",
          "name": "operator",
          "type": "address"
        },
        {
          "indexed": false,
          "internalType": "bool",
          "name": "approved",
          "type": "bool"
        }
      ],
      "name": "ApprovalForAll",
      "type": "event"
    },
    {
      "anonymous": false,
      "inputs": [
        {
          "indexed": true,
          "internalType": "uint256",
          "name": "tokenId",
          "type": "uint256"
        },
        {
          "indexed": false,
          "internalType": "string",
          "name": "cid",
          "type": "string"
        },
        {
          "indexed": false,
          "internalType": "string",
          "name": "filename",
          "type": "string"
        },
        {
          "indexed": true,
          "internalType": "address",
          "name": "owner",
          "type": "address"
        },
        {
          "indexed": false,
          "internalType": "string[]",
          "name": "tags",
          "type": "string[]"
        },
        {
          "indexed": false,
          "internalType": "bool",
          "name": "encrypted",
          "type": "bool"
        },
        {
          "indexed": false,
          "internalType": "string",
          "name": "dataToEncryptHash",
          "type": "string"
        },
        {
          "indexed": false,
          "internalType": "string",
          "name": "fileType",
          "type": "string"
        }
      ],
      "name": "FileAdded",
      "type": "event"
    },
    {
      "anonymous": false,
      "inputs": [
        {
          "indexed": true,
          "internalType": "uint256",
          "name": "fromTokenId",
          "type": "uint256"
        },
        {
          "indexed": true,
          "internalType": "uint256",
          "name": "toTokenId",
          "type": "uint256"
        },
        {
          "indexed": false,
          "internalType": "string",
          "name": "cid",
          "type": "string"
        },
        {
          "indexed": false,
          "internalType": "string",
          "name": "filename",
          "type": "string"
        },
        {
          "indexed": true,
          "internalType": "address",
          "name": "mover",
          "type": "address"
        },
        {
          "indexed": false,
          "internalType": "bool",
          "name": "encrypted",
          "type": "bool"
        },
        {
          "indexed": false,
          "internalType": "string",
          "name": "dataToEncryptHash",
          "type": "string"
        },
        {
          "indexed": false,
          "internalType": "string",
          "name": "fileType",
          "type": "string"
        }
      ],
      "name": "FileMoved",
      "type": "event"
    },
    {
      "anonymous": false,
      "inputs": [
        {
          "indexed": true,
          "internalType": "uint256",
          "name": "tokenId",
          "type": "uint256"
        },
        {
          "indexed": false,
          "internalType": "string",
          "name": "cid",
          "type": "string"
        },
        {
          "indexed": false,
          "internalType": "string",
          "name": "filename",
          "type": "string"
        },
        {
          "indexed": true,
          "internalType": "address",
          "name": "remover",
          "type": "address"
        }
      ],
      "name": "FileRemoved",
      "type": "event"
    },
    {
      "anonymous": false,
      "inputs": [
        {
          "indexed": true,
          "internalType": "address",
          "name": "searcher",
          "type": "address"
        },
        {
          "indexed": true,
          "internalType": "uint256",
          "name": "folderId",
          "type": "uint256"
        },
        {
          "indexed": false,
          "internalType": "string",
          "name": "tag",
          "type": "string"
        },
        {
          "indexed": false,
          "internalType": "uint256",
          "name": "resultsCount",
          "type": "uint256"
        }
      ],
      "name": "FilesSearched",
      "type": "event"
    },
    {
      "anonymous": false,
      "inputs": [
        {
          "indexed": true,
          "internalType": "uint256",
          "name": "tokenId",
          "type": "uint256"
        },
        {
          "indexed": true,
          "internalType": "address",
          "name": "owner",
          "type": "address"
        },
        {
          "indexed": false,
          "internalType": "string",
          "name": "name",
          "type": "string"
        },
        {
          "indexed": false,
          "internalType": "string",
          "name": "folderType",
          "type": "string"
        }
      ],
      "name": "FolderMinted",
      "type": "event"
    },
    {
      "anonymous": false,
      "inputs": [
        {
          "indexed": true,
          "internalType": "uint256",
          "name": "tokenId",
          "type": "uint256"
        },
        {
          "indexed": false,
          "internalType": "bool",
          "name": "isPublic",
          "type": "bool"
        }
      ],
      "name": "FolderPublicityChanged",
      "type": "event"
    },
    {
      "anonymous": false,
      "inputs": [
        {
          "indexed": true,
          "internalType": "uint256",
          "name": "tokenId",
          "type": "uint256"
        },
        {
          "indexed": false,
          "internalType": "string",
          "name": "newType",
          "type": "string"
        }
      ],
      "name": "FolderTypeChanged",
      "type": "event"
    },
    {
      "anonymous": false,
      "inputs": [
        {
          "indexed": true,
          "internalType": "address",
          "name": "previousOwner",
          "type": "address"
        },
        {
          "indexed": true,
          "internalType": "address",
          "name": "newOwner",
          "type": "address"
        }
      ],
      "name": "OwnershipTransferred",
      "type": "event"
    },
    {
      "anonymous": false,
      "inputs": [
        {
          "indexed": true,
          "internalType": "address",
          "name": "token",
          "type": "address"
        }
      ],
      "name": "PaymentTokenSet",
      "type": "event"
    },
    {
      "anonymous": false,
      "inputs": [
        {
          "indexed": true,
          "internalType": "uint256",
          "name": "shareId",
          "type": "uint256"
        },
        {
          "indexed": true,
          "internalType": "uint256",
          "name": "folderId",
          "type": "uint256"
        },
        {
          "indexed": true,
          "internalType": "address",
          "name": "grantee",
          "type": "address"
        },
        {
          "indexed": false,
          "internalType": "bool",
          "name": "canRead",
          "type": "bool"
        },
        {
          "indexed": false,
          "internalType": "bool",
          "name": "canWrite",
          "type": "bool"
        }
      ],
      "name": "ShareCreated",
      "type": "event"
    },
    {
      "anonymous": false,
      "inputs": [
        {
          "indexed": true,
          "internalType": "uint256",
          "name": "shareId",
          "type": "uint256"
        }
      ],
      "name": "ShareRevoked",
      "type": "event"
    },
    {
      "anonymous": false,
      "inputs": [
        {
          "indexed": true,
          "internalType": "address",
          "name": "from",
          "type": "address"
        },
        {
          "indexed": true,
          "internalType": "address",
          "name": "to",
          "type": "address"
        },
        {
          "indexed": true,
          "internalType": "uint256",
          "name": "tokenId",
          "type": "uint256"
        }
      ],
      "name": "Transfer",
      "type": "event"
    },
    {
      "anonymous": false,
      "inputs": [
        {
          "indexed": true,
          "internalType": "uint256",
          "name": "tokenId",
          "type": "uint256"
        },
        {
          "indexed": true,
          "internalType": "address",
          "name": "viewer",
          "type": "address"
        },
        {
          "indexed": false,
          "internalType": "uint256",
          "name": "amount",
          "type": "uint256"
        }
      ],
      "name": "ViewAccessPurchased",
      "type": "event"
    },
    {
      "anonymous": false,
      "inputs": [
        {
          "indexed": true,
          "internalType": "uint256",
          "name": "tokenId",
          "type": "uint256"
        },
        {
          "indexed": false,
          "internalType": "uint256",
          "name": "price",
          "type": "uint256"
        }
      ],
      "name": "ViewingPriceSet",
      "type": "event"
    },
    {
      "inputs": [
        {
          "internalType": "uint256",
          "name": "tokenId",
          "type": "uint256"
        },
        {
          "internalType": "string",
          "name": "cid",
          "type": "string"
        },
        {
          "internalType": "string",
          "name": "filename",
          "type": "string"
        },
        {
          "internalType": "string[]",
          "name": "tags",
          "type": "string[]"
        },
        {
          "internalType": "bool",
          "name": "encrypted",
          "type": "bool"
        },
        {
          "internalType": "string",
          "name": "dataToEncryptHash",
          "type": "string"
        },
        {
          "internalType": "string",
          "name": "fileType",
          "type": "string"
        }
      ],
      "name": "addFile",
      "outputs": [],
      "stateMutability": "nonpayable",
      "type": "function"
    },
    {
      "inputs": [
        {
          "internalType": "address",
          "name": "to",
          "type": "address"
        },
        {
          "internalType": "uint256",
          "name": "tokenId",
          "type": "uint256"
        }
      ],
      "name": "approve",
      "outputs": [],
      "stateMutability": "nonpayable",
      "type": "function"
    },
    {
      "inputs": [
        {
          "internalType": "address",
          "name": "owner",
          "type": "address"
        }
      ],
      "name": "balanceOf",
      "outputs": [
        {
          "internalType": "uint256",
          "name": "",
          "type": "uint256"
        }
      ],
      "stateMutability": "view",
      "type": "function"
    },
    {
      "inputs": [
        {
          "internalType": "uint256",
          "name": "tokenId",
          "type": "uint256"
        },
        {
          "internalType": "address",
          "name": "user",
          "type": "address"
        }
      ],
      "name": "canRead",
      "outputs": [
        {
          "internalType": "bool",
          "name": "",
          "type": "bool"
        }
      ],
      "stateMutability": "view",
      "type": "function"
    },
    {
      "inputs": [
        {
          "internalType": "uint256",
          "name": "tokenId",
          "type": "uint256"
        },
        {
          "internalType": "address",
          "name": "user",
          "type": "address"
        }
      ],
      "name": "canWrite",
      "outputs": [
        {
          "internalType": "bool",
          "name": "",
          "type": "bool"
        }
      ],
      "stateMutability": "view",
      "type": "function"
    },
    {
      "inputs": [
        {
          "internalType": "uint256",
          "name": "tokenId",
          "type": "uint256"
        },
        {
          "internalType": "string",
          "name": "cid",
          "type": "string"
        }
      ],
      "name": "fileExists",
      "outputs": [
        {
          "internalType": "bool",
          "name": "",
          "type": "bool"
        }
      ],
      "stateMutability": "view",
      "type": "function"
    },
    {
      "inputs": [
        {
          "internalType": "uint256",
          "name": "tokenId",
          "type": "uint256"
        }
      ],
      "name": "getApproved",
      "outputs": [
        {
          "internalType": "address",
          "name": "",
          "type": "address"
        }
      ],
      "stateMutability": "view",
      "type": "function"
    },
    {
      "inputs": [
        {
          "internalType": "uint256",
          "name": "tokenId",
          "type": "uint256"
        }
      ],
      "name": "getFileCount",
      "outputs": [
        {
          "internalType": "uint256",
          "name": "",
          "type": "uint256"
        }
      ],
      "stateMutability": "view",
      "type": "function"
    },
    {
      "inputs": [
        {
          "internalType": "uint256",
          "name": "tokenId",
          "type": "uint256"
        }
      ],
      "name": "getFiles",
      "outputs": [
        {
          "components": [
            {
              "internalType": "string",
              "name": "cid",
              "type": "string"
            },
            {
              "internalType": "string",
              "name": "filename",
              "type": "string"
            },
            {
              "internalType": "uint256",
              "name": "timestamp",
              "type": "uint256"
            },
            {
              "internalType": "address",
              "name": "owner",
              "type": "address"
            },
            {
              "internalType": "string[]",
              "name": "tags",
              "type": "string[]"
            },
            {
              "internalType": "bool",
              "name": "encrypted",
              "type": "bool"
            },
            {
              "internalType": "string",
              "name": "dataToEncryptHash",
              "type": "string"
            },
            {
              "internalType": "string",
              "name": "fileType",
              "type": "string"
            }
          ],
          "internalType": "struct FolderNFT.FileEntry[]",
          "name": "",
          "type": "tuple[]"
        }
      ],
      "stateMutability": "view",
      "type": "function"
    },
    {
      "inputs": [
        {
          "internalType": "uint256",
          "name": "tokenId",
          "type": "uint256"
        },
        {
          "internalType": "address",
          "name": "user",
          "type": "address"
        }
      ],
      "name": "getFolderAccess",
      "outputs": [
        {
          "internalType": "bool",
          "name": "canRead_",
          "type": "bool"
        },
        {
          "internalType": "bool",
          "name": "canWrite_",
          "type": "bool"
        },
        {
          "internalType": "bool",
          "name": "isOwner",
          "type": "bool"
        }
      ],
      "stateMutability": "view",
      "type": "function"
    },
    {
      "inputs": [
        {
          "internalType": "uint256",
          "name": "tokenId",
          "type": "uint256"
        }
      ],
      "name": "getFolderData",
      "outputs": [
        {
          "components": [
            {
              "internalType": "string",
              "name": "name",
              "type": "string"
            },
            {
              "internalType": "string",
              "name": "folderType",
              "type": "string"
            },
            {
              "internalType": "bool",
              "name": "isPublic",
              "type": "bool"
            },
            {
              "internalType": "address",
              "name": "owner",
              "type": "address"
            },
            {
              "internalType": "uint256",
              "name": "createdAt",
              "type": "uint256"
            },
            {
              "internalType": "uint256",
              "name": "viewingPrice",
              "type": "uint256"
            }
          ],
          "internalType": "struct FolderNFT.FolderInfo",
          "name": "data_",
          "type": "tuple"
        }
      ],
      "stateMutability": "view",
      "type": "function"
    },
    {
      "inputs": [
        {
          "internalType": "uint256",
          "name": "tokenId",
          "type": "uint256"
        }
      ],
      "name": "getFolderSharees",
      "outputs": [
        {
          "internalType": "uint256[]",
          "name": "shareIds",
          "type": "uint256[]"
        },
        {
          "internalType": "address[]",
          "name": "sharees",
          "type": "address[]"
        },
        {
          "internalType": "bool[]",
          "name": "canReadList",
          "type": "bool[]"
        },
        {
          "internalType": "bool[]",
          "name": "canWriteList",
          "type": "bool[]"
        }
      ],
      "stateMutability": "view",
      "type": "function"
    },
    {
      "inputs": [
        {
          "internalType": "uint256",
          "name": "tokenId",
          "type": "uint256"
        }
      ],
      "name": "getFolderTags",
      "outputs": [
        {
          "internalType": "string[]",
          "name": "",
          "type": "string[]"
        }
      ],
      "stateMutability": "view",
      "type": "function"
    },
    {
      "inputs": [
        {
          "internalType": "address",
          "name": "owner",
          "type": "address"
        }
      ],
      "name": "getFoldersOwnedBy",
      "outputs": [
        {
          "internalType": "uint256[]",
          "name": "",
          "type": "uint256[]"
        }
      ],
      "stateMutability": "view",
      "type": "function"
    },
    {
      "inputs": [
        {
          "internalType": "address",
          "name": "user",
          "type": "address"
        }
      ],
      "name": "getFoldersSharedTo",
      "outputs": [
        {
          "internalType": "uint256[]",
          "name": "",
          "type": "uint256[]"
        }
      ],
      "stateMutability": "view",
      "type": "function"
    },
    {
      "inputs": [],
      "name": "getPublicFolders",
      "outputs": [
        {
          "internalType": "uint256[]",
          "name": "",
          "type": "uint256[]"
        }
      ],
      "stateMutability": "view",
      "type": "function"
    },
    {
      "inputs": [
        {
          "internalType": "uint256",
          "name": "tokenId",
          "type": "uint256"
        }
      ],
      "name": "getViewingPrice",
      "outputs": [
        {
          "internalType": "uint256",
          "name": "",
          "type": "uint256"
        }
      ],
      "stateMutability": "view",
      "type": "function"
    },
    {
      "inputs": [
        {
          "internalType": "uint256",
          "name": "tokenId",
          "type": "uint256"
        },
        {
          "internalType": "address",
          "name": "viewer",
          "type": "address"
        }
      ],
      "name": "hasPaidViewAccess",
      "outputs": [
        {
          "internalType": "bool",
          "name": "",
          "type": "bool"
        }
      ],
      "stateMutability": "view",
      "type": "function"
    },
    {
      "inputs": [
        {
          "internalType": "address",
          "name": "owner",
          "type": "address"
        },
        {
          "internalType": "address",
          "name": "operator",
          "type": "address"
        }
      ],
      "name": "isApprovedForAll",
      "outputs": [
        {
          "internalType": "bool",
          "name": "",
          "type": "bool"
        }
      ],
      "stateMutability": "view",
      "type": "function"
    },
    {
      "inputs": [
        {
          "internalType": "string",
          "name": "name",
          "type": "string"
        },
        {
          "internalType": "string",
          "name": "folderType",
          "type": "string"
        }
      ],
      "name": "mintFolder",
      "outputs": [
        {
          "internalType": "uint256",
          "name": "",
          "type": "uint256"
        }
      ],
      "stateMutability": "nonpayable",
      "type": "function"
    },
    {
      "inputs": [
        {
          "internalType": "uint256",
          "name": "fromTokenId",
          "type": "uint256"
        },
        {
          "internalType": "uint256",
          "name": "toTokenId",
          "type": "uint256"
        },
        {
          "internalType": "string",
          "name": "cid",
          "type": "string"
        }
      ],
      "name": "moveFile",
      "outputs": [],
      "stateMutability": "nonpayable",
      "type": "function"
    },
    {
      "inputs": [],
      "name": "name",
      "outputs": [
        {
          "internalType": "string",
          "name": "",
          "type": "string"
        }
      ],
      "stateMutability": "view",
      "type": "function"
    },
    {
      "inputs": [],
      "name": "owner",
      "outputs": [
        {
          "internalType": "address",
          "name": "",
          "type": "address"
        }
      ],
      "stateMutability": "view",
      "type": "function"
    },
    {
      "inputs": [
        {
          "internalType": "uint256",
          "name": "tokenId",
          "type": "uint256"
        }
      ],
      "name": "ownerOf",
      "outputs": [
        {
          "internalType": "address",
          "name": "",
          "type": "address"
        }
      ],
      "stateMutability": "view",
      "type": "function"
    },
    {
      "inputs": [
        {
          "internalType": "uint256",
          "name": "tokenId",
          "type": "uint256"
        }
      ],
      "name": "payForViewAccess",
      "outputs": [],
      "stateMutability": "nonpayable",
      "type": "function"
    },
    {
      "inputs": [],
      "name": "paymentToken",
      "outputs": [
        {
          "internalType": "contract IERC20",
          "name": "",
          "type": "address"
        }
      ],
      "stateMutability": "view",
      "type": "function"
    },
    {
      "inputs": [
        {
          "internalType": "uint256",
          "name": "tokenId",
          "type": "uint256"
        },
        {
          "internalType": "string",
          "name": "cid",
          "type": "string"
        }
      ],
      "name": "removeFile",
      "outputs": [],
      "stateMutability": "nonpayable",
      "type": "function"
    },
    {
      "inputs": [],
      "name": "renounceOwnership",
      "outputs": [],
      "stateMutability": "nonpayable",
      "type": "function"
    },
    {
      "inputs": [
        {
          "internalType": "uint256",
          "name": "shareId",
          "type": "uint256"
        }
      ],
      "name": "revokeShare",
      "outputs": [],
      "stateMutability": "nonpayable",
      "type": "function"
    },
    {
      "inputs": [
        {
          "internalType": "address",
          "name": "from",
          "type": "address"
        },
        {
          "internalType": "address",
          "name": "to",
          "type": "address"
        },
        {
          "internalType": "uint256",
          "name": "tokenId",
          "type": "uint256"
        }
      ],
      "name": "safeTransferFrom",
      "outputs": [],
      "stateMutability": "nonpayable",
      "type": "function"
    },
    {
      "inputs": [
        {
          "internalType": "address",
          "name": "from",
          "type": "address"
        },
        {
          "internalType": "address",
          "name": "to",
          "type": "address"
        },
        {
          "internalType": "uint256",
          "name": "tokenId",
          "type": "uint256"
        },
        {
          "internalType": "bytes",
          "name": "data",
          "type": "bytes"
        }
      ],
      "name": "safeTransferFrom",
      "outputs": [],
      "stateMutability": "nonpayable",
      "type": "function"
    },
    {
      "inputs": [
        {
          "internalType": "uint256",
          "name": "tokenId",
          "type": "uint256"
        },
        {
          "internalType": "string[]",
          "name": "tags",
          "type": "string[]"
        }
      ],
      "name": "searchFilesByMultipleTags",
      "outputs": [
        {
          "components": [
            {
              "internalType": "string",
              "name": "cid",
              "type": "string"
            },
            {
              "internalType": "string",
              "name": "filename",
              "type": "string"
            },
            {
              "internalType": "uint256",
              "name": "timestamp",
              "type": "uint256"
            },
            {
              "internalType": "address",
              "name": "owner",
              "type": "address"
            },
            {
              "internalType": "string[]",
              "name": "tags",
              "type": "string[]"
            },
            {
              "internalType": "bool",
              "name": "encrypted",
              "type": "bool"
            },
            {
              "internalType": "string",
              "name": "dataToEncryptHash",
              "type": "string"
            },
            {
              "internalType": "string",
              "name": "fileType",
              "type": "string"
            }
          ],
          "internalType": "struct FolderNFT.FileEntry[]",
          "name": "",
          "type": "tuple[]"
        }
      ],
      "stateMutability": "nonpayable",
      "type": "function"
    },
    {
      "inputs": [
        {
          "internalType": "uint256",
          "name": "tokenId",
          "type": "uint256"
        },
        {
          "internalType": "string",
          "name": "tag",
          "type": "string"
        }
      ],
      "name": "searchFilesByTag",
      "outputs": [
        {
          "components": [
            {
              "internalType": "string",
              "name": "cid",
              "type": "string"
            },
            {
              "internalType": "string",
              "name": "filename",
              "type": "string"
            },
            {
              "internalType": "uint256",
              "name": "timestamp",
              "type": "uint256"
            },
            {
              "internalType": "address",
              "name": "owner",
              "type": "address"
            },
            {
              "internalType": "string[]",
              "name": "tags",
              "type": "string[]"
            },
            {
              "internalType": "bool",
              "name": "encrypted",
              "type": "bool"
            },
            {
              "internalType": "string",
              "name": "dataToEncryptHash",
              "type": "string"
            },
            {
              "internalType": "string",
              "name": "fileType",
              "type": "string"
            }
          ],
          "internalType": "struct FolderNFT.FileEntry[]",
          "name": "",
          "type": "tuple[]"
        }
      ],
      "stateMutability": "nonpayable",
      "type": "function"
    },
    {
      "inputs": [
        {
          "internalType": "uint256[]",
          "name": "folderIds",
          "type": "uint256[]"
        },
        {
          "internalType": "string",
          "name": "tag",
          "type": "string"
        }
      ],
      "name": "searchFilesByTagAcrossFolders",
      "outputs": [
        {
          "components": [
            {
              "internalType": "string",
              "name": "cid",
              "type": "string"
            },
            {
              "internalType": "string",
              "name": "filename",
              "type": "string"
            },
            {
              "internalType": "uint256",
              "name": "timestamp",
              "type": "uint256"
            },
            {
              "internalType": "address",
              "name": "owner",
              "type": "address"
            },
            {
              "internalType": "string[]",
              "name": "tags",
              "type": "string[]"
            },
            {
              "internalType": "bool",
              "name": "encrypted",
              "type": "bool"
            },
            {
              "internalType": "string",
              "name": "dataToEncryptHash",
              "type": "string"
            },
            {
              "internalType": "string",
              "name": "fileType",
              "type": "string"
            }
          ],
          "internalType": "struct FolderNFT.FileEntry[]",
          "name": "",
          "type": "tuple[]"
        }
      ],
      "stateMutability": "view",
      "type": "function"
    },
    {
      "inputs": [
        {
          "internalType": "string",
          "name": "tag",
          "type": "string"
        }
      ],
      "name": "searchMyFilesByTag",
      "outputs": [
        {
          "components": [
            {
              "internalType": "string",
              "name": "cid",
              "type": "string"
            },
            {
              "internalType": "string",
              "name": "filename",
              "type": "string"
            },
            {
              "internalType": "uint256",
              "name": "timestamp",
              "type": "uint256"
            },
            {
              "internalType": "address",
              "name": "owner",
              "type": "address"
            },
            {
              "internalType": "string[]",
              "name": "tags",
              "type": "string[]"
            },
            {
              "internalType": "bool",
              "name": "encrypted",
              "type": "bool"
            },
            {
              "internalType": "string",
              "name": "dataToEncryptHash",
              "type": "string"
            },
            {
              "internalType": "string",
              "name": "fileType",
              "type": "string"
            }
          ],
          "internalType": "struct FolderNFT.FileEntry[]",
          "name": "",
          "type": "tuple[]"
        }
      ],
      "stateMutability": "view",
      "type": "function"
    },
    {
      "inputs": [
        {
          "internalType": "address",
          "name": "operator",
          "type": "address"
        },
        {
          "internalType": "bool",
          "name": "approved",
          "type": "bool"
        }
      ],
      "name": "setApprovalForAll",
      "outputs": [],
      "stateMutability": "nonpayable",
      "type": "function"
    },
    {
      "inputs": [
        {
          "internalType": "uint256",
          "name": "tokenId",
          "type": "uint256"
        },
        {
          "internalType": "bool",
          "name": "isPublic",
          "type": "bool"
        },
        {
          "internalType": "uint256",
          "name": "viewingPrice",
          "type": "uint256"
        }
      ],
      "name": "setFolderPublic",
      "outputs": [],
      "stateMutability": "nonpayable",
      "type": "function"
    },
    {
      "inputs": [
        {
          "internalType": "address",
          "name": "_paymentToken",
          "type": "address"
        }
      ],
      "name": "setPaymentToken",
      "outputs": [],
      "stateMutability": "nonpayable",
      "type": "function"
    },
    {
      "inputs": [
        {
          "internalType": "uint256",
          "name": "tokenId",
          "type": "uint256"
        },
        {
          "internalType": "uint256",
          "name": "price",
          "type": "uint256"
        }
      ],
      "name": "setViewingPrice",
      "outputs": [],
      "stateMutability": "nonpayable",
      "type": "function"
    },
    {
      "inputs": [
        {
          "internalType": "uint256",
          "name": "tokenId",
          "type": "uint256"
        },
        {
          "internalType": "address",
          "name": "grantee",
          "type": "address"
        },
        {
          "internalType": "bool",
          "name": "canRead_",
          "type": "bool"
        },
        {
          "internalType": "bool",
          "name": "canWrite_",
          "type": "bool"
        }
      ],
      "name": "shareFolder",
      "outputs": [
        {
          "internalType": "uint256",
          "name": "",
          "type": "uint256"
        }
      ],
      "stateMutability": "nonpayable",
      "type": "function"
    },
    {
      "inputs": [
        {
          "internalType": "bytes4",
          "name": "interfaceId",
          "type": "bytes4"
        }
      ],
      "name": "supportsInterface",
      "outputs": [
        {
          "internalType": "bool",
          "name": "",
          "type": "bool"
        }
      ],
      "stateMutability": "view",
      "type": "function"
    },
    {
      "inputs": [],
      "name": "symbol",
      "outputs": [
        {
          "internalType": "string",
          "name": "",
          "type": "string"
        }
      ],
      "stateMutability": "view",
      "type": "function"
    },
    {
      "inputs": [
        {
          "internalType": "uint256",
          "name": "index",
          "type": "uint256"
        }
      ],
      "name": "tokenByIndex",
      "outputs": [
        {
          "internalType": "uint256",
          "name": "",
          "type": "uint256"
        }
      ],
      "stateMutability": "view",
      "type": "function"
    },
    {
      "inputs": [
        {
          "internalType": "address",
          "name": "owner",
          "type": "address"
        },
        {
          "internalType": "uint256",
          "name": "index",
          "type": "uint256"
        }
      ],
      "name": "tokenOfOwnerByIndex",
      "outputs": [
        {
          "internalType": "uint256",
          "name": "",
          "type": "uint256"
        }
      ],
      "stateMutability": "view",
      "type": "function"
    },
    {
      "inputs": [
        {
          "internalType": "uint256",
          "name": "tokenId",
          "type": "uint256"
        }
      ],
      "name": "tokenURI",
      "outputs": [
        {
          "internalType": "string",
          "name": "",
          "type": "string"
        }
      ],
      "stateMutability": "view",
      "type": "function"
    },
    {
      "inputs": [],
      "name": "totalSupply",
      "outputs": [
        {
          "internalType": "uint256",
          "name": "",
          "type": "uint256"
        }
      ],
      "stateMutability": "view",
      "type": "function"
    },
    {
      "inputs": [
        {
          "internalType": "address",
          "name": "from",
          "type": "address"
        },
        {
          "internalType": "address",
          "name": "to",
          "type": "address"
        },
        {
          "internalType": "uint256",
          "name": "tokenId",
          "type": "uint256"
        }
      ],
      "name": "transferFrom",
      "outputs": [],
      "stateMutability": "nonpayable",
      "type": "function"
    },
    {
      "inputs": [
        {
          "internalType": "address",
          "name": "newOwner",
          "type": "address"
        }
      ],
      "name": "transferOwnership",
      "outputs": [],
      "stateMutability": "nonpayable",
      "type": "function"
    }
  ],
  "bytecode": "0x6080346200040357601f19906001600160401b0390601f62005166388190038281018616840185811185821017620003ed578492829160405283396020938491810103126200040357516001600160a01b03808216949092909185900362000403576200006b62000408565b936009855268119bdb19195c93919560ba1b818601526200008b62000408565b90600382526223222960e91b81830152855197848911620003ed576000988954976001988981811c91168015620003e2575b85821014620003ce579081878493116200037b575b5084908783116001146200031a578c926200030e575b5050600019600383901b1c191690881b1789555b8251948511620002fa5786548781811c91168015620002ef575b83821014620002db5790818587969594931162000282575b50819385116001146200021d575050879262000211575b5050600019600383901b1c191690831b1782555b3315620001f857600a549160018060a01b0319923384821617600a55604051923391167f8be0079c531659141344cd1fd0a4f28419497f9722a3daafe3b4186f6b6457e08780a3600e558215620001e95750819060135416176013557fcb0aeffe884eb88fb2a31a2f3e4bd1d2763bdee48ba93b28c6e87501228cf7436040519280a2614d3d9081620004298239f35b6356e7ec5f60e01b8152600490fd5b604051631e4fbdf760e01b815260048101859052602490fd5b01519050388062000145565b87959392919316858a52838a20938a905b8282106200026857505084116200024e575b505050811b01825562000159565b015160001960f88460031b161c1916905538808062000240565b84840151865589979095019493840193908101906200022e565b909192939450878a52828a208580880160051c820192858910620002d1575b9188978b9297969594930160051c01915b828110620002c25750506200012e565b8c81558897508a9101620002b2565b92508192620002a1565b634e487b7160e01b8a52602260045260248afd5b90607f169062000116565b634e487b7160e01b89526041600452602489fd5b015190503880620000e8565b908c91858c9516838052878420935b888282106200036457505084116200034a575b505050811b018955620000fc565b015160001960f88460031b161c191690553880806200033c565b8385015186558e9790950194938401930162000329565b9091508b8052848c208780850160051c820192878610620003c4575b918c91869594930160051c01915b828110620003b5575050620000d2565b8e81558594508c9101620003a5565b9250819262000397565b634e487b7160e01b8c52602260045260248cfd5b90607f1690620000bd565b634e487b7160e01b600052604160045260246000fd5b600080fd5b60408051919082016001600160401b03811183821017620003ed5760405256fe6080604052600436101561001257600080fd5b60003560e01c806301ffc9a71461031757806306fdde0314610312578063081812fc1461030d578063095ea7b3146103085780630c0564d61461030357806312506f4d146102fe578063153a9040146102f957806318160ddd146102f45780631c321ea3146102ef57806323b872dd146102ea57806328bde1d3146102e55780632f745c59146102e05780632fd7bb53146102db5780633013ce29146102d6578063333c6438146102d15780633cd1f0f7146102cc57806342842e0e146102c7578063446db1e0146102c25780634afa7e53146102bd5780634e6c3bbe146102b85780634f6ccce7146102b357806350038737146102ae57806350f5eda1146102a9578063567e55ef146102a45780635eb945b01461029f5780635fe1dec31461029a5780636352211e146102955780636a326ab11461029057806370a082311461028b578063715018a61461028657806371827cd514610281578063761805e51461027c5780637cf1f53e146102775780638da5cb5b146102725780638e6ea4ef1461026d57806395d89b4114610268578063a22cb46514610263578063a4cd6d261461025e578063b88d4fde14610259578063c4e7ee4d14610254578063c777ada21461024f578063c87b56dd1461024a578063ca0cf88314610245578063cc334e3714610240578063d6dae3641461023b578063e01b421714610236578063e985e9c5146102315763f2fde38b1461022c57600080fd5b612edf565b612e8e565b612ce6565b612ac5565b6128ee565b612770565b61266a565b612644565b6125a1565b6124d7565b6122f9565b61223c565b612197565b611f04565b611edb565b611d1c565b611c94565b611ab8565b611a5a565b611a37565b6119bc565b61198c565b611859565b611704565b611657565b61149f565b6112ca565b6112ac565b611132565b611064565b610f8f565b610f5b565b610f2b565b610dfe565b610dd5565b610d89565b610d5a565b610b09565b610ac5565b6109f8565b6109da565b610988565b61085b565b6106a4565b61055c565b6104f2565b61040f565b610333565b6001600160e01b031981160361032e57565b600080fd5b3461032e57602036600319011261032e5760206004356103528161031c565b63ffffffff60e01b1663780e9d6360e01b8114908115610378575b506040519015158152f35b6380ac58cd60e01b8114915081156103aa575b8115610399575b503861036d565b6301ffc9a760e01b14905038610392565b635b5e139f60e01b8114915061038b565b919082519283825260005b8481106103e7575050826000602080949584010152601f8019910116010190565b6020818301810151848301820152016103c6565b90602061040c9281815201906103bb565b90565b3461032e576000806003193601126104ef576040519080805461043181612fd2565b808552916001918083169081156104c5575060011461046b575b6104678561045b8187038261242b565b604051918291826103fb565b0390f35b80809450527f290decd9548b62a8d60345a988386fc84ba6bc95484008f6362f93160ef3e5635b8284106104ad57505050810160200161045b8261046761044b565b80546020858701810191909152909301928101610492565b8695506104679693506020925061045b94915060ff191682840152151560051b820101929361044b565b80fd5b3461032e57602036600319011261032e5760043561050f81613246565b506000526004602052602060018060a01b0360406000205416604051908152f35b600435906001600160a01b038216820361032e57565b602435906001600160a01b038216820361032e57565b3461032e57604036600319011261032e57610575610530565b6024359061058282613246565b3315158061064c575b8061061e575b61060257610600926105e19181906001600160a01b0385811691167f8c5be1e5ebec7d5bd14f71427d1e84f3dd0314c0f7b2291e5b200ac8c7c3b925600080a46000526004602052604060002090565b80546001600160a01b0319166001600160a01b03909216919091179055565b005b60405163a9fbf51f60e01b8152336004820152602490fd5b0390fd5b506001600160a01b038116600090815260056020908152604080832033845290915290205460ff1615610591565b506001600160a01b03811633141561058b565b90815180825260208080930193019160005b82811061067f575050505090565b835185529381019392810192600101610671565b90602061040c92818152019061065f565b3461032e57602036600319011261032e576106bd610530565b6106c681612f99565b6106cf81614c4a565b9160005b8281106106f057604051602080825281906104679082018761065f565b806106fe61070e9284613281565b6107088287614a0e565b5261461c565b6106d3565b908082519081815260208091019281808460051b8301019501936000915b8483106107415750505050505090565b909192939495848061075f600193601f198682030187528a516103bb565b9801930193019194939290610731565b602080820190808352835180925260409283810182858560051b8401019601946000925b8584106107a4575050505050505090565b90919293949596858061084a600193603f198682030188528b516108376108186107ea6107da84516101008088528701906103bb565b87850151868203898801526103bb565b838b0151858c01526060808501516001600160a01b0316908601526080808501519086830390870152610713565b60a08381015115159085015260c08084015190858303908601526103bb565b9160e080920151918184039101526103bb565b990194019401929594939190610793565b3461032e57602036600319011261032e576004356000818152600260205260409020546001600160a01b031615610891565b1590565b61096e5761089f3382614732565b8015610942575b6108af9061494e565b6108c381600052600b602052604060002090565b546108cd81614989565b9160005b8281106108e65760405180610467868261076f565b8061092261091d61090d61093d9461090887600052600b602052604060002090565b614a22565b600052600c602052604060002090565b61444c565b61092c8287614a0e565b526109378186614a0e565b5061461c565b6108d1565b506108af610967600261095f84600052600d602052604060002090565b015460ff1690565b90506108a6565b604051637399e49160e01b81526004810191909152602490fd5b3461032e57604036600319011261032e57602060ff6109ce6109a8610546565b6004356000526012845260406000209060018060a01b0316600052602052604060002090565b54166040519015158152f35b3461032e57600036600319011261032e576020600854604051908152f35b3461032e57604036600319011261032e57600435610a14610546565b6000828152600260205260409020549091906001600160a01b031615610a7857606091610a4082613246565b90610a5581610a4f8186614732565b9461483d565b60405193151584521515602084015260018060a01b038091169116146040820152f35b60249060405190637399e49160e01b82526004820152fd5b606090600319011261032e576001600160a01b0390600435828116810361032e5791602435908116810361032e579060443590565b3461032e57610600610ad636610a90565b916130b0565b9181601f8401121561032e578235916001600160401b03831161032e576020838186019501011161032e57565b3461032e5760208060031936011261032e576004356001600160401b03811161032e57610b3a903690600401610adc565b90610b4433612f99565b92610b4e84614c4a565b9360005b818110610d3d575050600091825b8551811015610bca57610b738187614a0e565b516000818152600260205260409020546001600160a01b0316610ba0575b50610b9b9061461c565b610b60565b610b9b9194610bbc610bc392600052600b602052604060002090565b5490613a2c565b9390610b91565b509092610bd78593614989565b600090815b8551811015610cfb57610bef8187614a0e565b516000818152600260205260409020546001600160a01b031615610cf157610c2181600052600b602052604060002090565b549060005b828110610c3e57505050610c399061461c565b610bdc565b610c5c61091d61090d8361090886600052600b602052604060002090565b610c70610c6a368a8c6124a0565b82614b35565b610c84575b50610c7f9061461c565b610c26565b6000805b888110610cba575b50610c755786610cb391610ca8610c7f949989614a0e565b526109378188614a0e565b9590610c75565b610cc48189614a0e565b51518051908e012083518051908f012014610ce757610ce29061461c565b610c88565b505060018c610c90565b50610c399061461c565b5090610d0681614989565b9160005b828110610d1f5760405180610467868261076f565b80610d2d610d389284614a0e565b5161092c8287614a0e565b610d0a565b80610d4b610d559233613281565b6107088289614a0e565b610b52565b3461032e57604036600319011261032e576020610d81610d78610530565b60243590613281565b604051908152f35b3461032e57602036600319011261032e576004356000818152600260205260409020546001600160a01b031615610a7857600052600d6020526020600460406000200154604051908152f35b3461032e57600036600319011261032e576013546040516001600160a01b039091168152602090f35b3461032e57602036600319011261032e57610e34610e1a610530565b6001600160a01b0316600090815260106020526040902090565b8054610e3f81614c4a565b90600092835b828110610e5d57848452604051806104678682610693565b610e87610e77610e6d83856132f7565b90549060031b1c90565b600052600f602052604060002090565b5480151580610f0b575b610ea5575b50610ea09061461c565b610e45565b6000805b878110610edf575b5090610ea0929115610ec5575b5090610e96565b610ed8610ed18861461c565b9787614a0e565b5238610ebe565b82610eea8289614a0e565b5114610efe57610ef99061461c565b610ea9565b5060019050610ea0610eb1565b506000818152600260205260409020546001600160a01b03161515610e91565b3461032e57604036600319011261032e576020610f51610f49610546565b600435614732565b6040519015158152f35b3461032e57610600610f6c36610a90565b9060405192610f7a84612410565b60008452610f898383836130b0565b33613996565b3461032e576000806003193601126104ef57600854610fad81614c4a565b9082805b828110610fc957848452604051806104678682610693565b80610fd661100092613314565b6000818152600260205260409020546001600160a01b0316151580611018575b611005575061461c565b610fb1565b611011610ed18861461c565b5238610937565b50808452600d60205260ff600260408620015416610ff6565b90604060031983011261032e5760043591602435906001600160401b03821161032e5761106091600401610adc565b9091565b3461032e5761107236611031565b6000838152600260205260409020546001600160a01b03161561111957916110d76110bf6110ec93610467956110a83386614732565b80156110fe575b6110b89061494e565b36916124a0565b6020815191012091600052600b602052604060002090565b60019160005201602052604060002054151590565b60405190151581529081906020820190565b506000858152600d602052604090206002015460ff166110af565b604051637399e49160e01b815260048101849052602490fd5b3461032e5761114036611031565b600083815260026020526040902054919290916001600160a01b03161561096e5761116b3382614732565b8015611288575b61117b9061494e565b61118f81600052600b602052604060002090565b549261119a84614989565b92600094855b8181106112235750506111b285614989565b9360005b868110611205575050610467947f9b1c441ad9f47b62e532c79b3794fa85444c1a503346a65cd85501508cd2bc65916111f6604051928392339684614b18565b0390a36040519182918261076f565b8061121361121e9284614a0e565b51610ca88289614a0e565b6111b6565b61124161091d61090d8361090889600052600b602052604060002090565b61124f610c6a3686886124a0565b611263575b5061125e9061461c565b6111a0565b876112819161127661125e949a8a614a0e565b526109378189614a0e565b9690611254565b5061117b6112a5600261095f84600052600d602052604060002090565b9050611172565b3461032e57602036600319011261032e576020610d81600435613314565b3461032e57602036600319011261032e576004356112f281600052600f602052604060002090565b805480156114865761130390613246565b336001600160a01b039091160361146d5760018181015490918291611330906001600160a01b0316610e1a565b6000835b611413575b50506113519150546000526011602052604060002090565b6000825b6113a5575b8361137e61137282600052600f602052604060002090565b60016000918281550155565b7f8c5a6faf8dae8a30a56c22fbcb6e105d3d45c9abfbf62015d17366f59a2ffda4600080a2005b81548082101561140d57846113bd610e6d84866132f7565b146113d257506113cc9061461c565b82611355565b6114059350906113fa6113f3610e6d6113ed6114009561356c565b866132f7565b91846132f7565b906135c2565b6136f7565b38808061135a565b5061135a565b815480821015611467578661142b610e6d84866132f7565b14611440575061143a9061461c565b83611334565b611351945061145f92916113fa6113f3610e6d6113ed6114009561356c565b829138611339565b50611339565b6040516336e7a3d960e11b815260048101839052602490fd5b604051635e308a3760e01b815260048101849052602490fd5b3461032e5760408060031936011261032e576001600160401b0360043581811161032e576114d1903690600401610adc565b92909160243590811161032e576114ec903690600401610adc565b929093600854936001850180951161160957835161150981612410565b6000815233156115f1576001600160a01b036115258733613368565b166115d9579585926115c87f90bddb5884aa47cbefb24cf96e29bcd7daa1b02fe38a55ef02ff51197cb6d2d3936115616104679a87333361389d565b6115bb61156c61244c565b61157736868b6124a0565b81526115843684886124a0565b602082015260008a820152336060820152426080820152600060a08201526115b688600052600d602052604060002090565b613b63565b8751938493339885613cdc565b0390a3519081529081906020820190565b84516339e3563760e11b815260006004820152602490fd5b8451633250574960e11b815260006004820152602490fd5b613556565b9181601f8401121561032e578235916001600160401b03831161032e576020808501948460051b01011161032e57565b8015150361032e57565b608435906116558261163e565b565b3461032e5760e036600319011261032e576001600160401b0360243581811161032e5761168960049136908301610adc565b60449291923584811161032e576116a39036908401610adc565b60649291923586811161032e576116bd903690860161160e565b906116c6611648565b9260a43589811161032e576116de9036908901610adc565b96909560c4359a8b1161032e576116fb6106009b36908b01610adc565b9a90993561413f565b3461032e57606036600319011261032e576004356024356117248161163e565b600082815260026020526040902054604435906001600160a01b0316156111195761174e83613246565b336001600160a01b039091160361184057818361181b926117b27ff473ca6c6c330ce0e937d075ca2c506af1927f94387452786dab4a6b16e16e199560026117a085600052600d602052604060002090565b019060ff801983541691151516179055565b821561182057611806817f1933109b5c774b8c03e2bdff7661bc5e90c1ef6fbd7917a7ef2499030c2394f49260046117f486600052600d602052604060002090565b01556040519081529081906020820190565b0390a260405190151581529081906020820190565b0390a2005b506004611839600092600052600d602052604060002090565b01556110ec565b604051633907167960e21b815260048101849052602490fd5b3461032e5761186736611031565b6000838152600260205260409020549192916001600160a01b0316156119735761189461088d338461483d565b61195a577f20c80d94f2726b1b4ec74bb63f2096894561f559edc7d7c0d18dff23874480129060206118c73683876124a0565b81815191012061194161193c6118e787600052600b602052604060002090565b9261190a611905828660019160005201602052604060002054151590565b614a2c565b61192b8161192561091d82600052600c602052604060002090565b9561452f565b50600052600c602052604060002090565b614a78565b015190611955604051928392339784614af2565b0390a3005b604051633907167960e21b815260048101839052602490fd5b604051637399e49160e01b815260048101839052602490fd5b3461032e57602036600319011261032e5760206119aa600435613246565b6040516001600160a01b039091168152f35b3461032e57602036600319011261032e576119d5610530565b6119dd612f6d565b6001600160a01b03168015611a2557601380546001600160a01b031916821790557fcb0aeffe884eb88fb2a31a2f3e4bd1d2763bdee48ba93b28c6e87501228cf743600080a2005b6040516356e7ec5f60e01b8152600490fd5b3461032e57602036600319011261032e576020610d81611a55610530565b612f99565b3461032e576000806003193601126104ef57611a74612f6d565b600a80546001600160a01b0319811690915581906001600160a01b03167f8be0079c531659141344cd1fd0a4f28419497f9722a3daafe3b4186f6b6457e08280a380f35b3461032e57602036600319011261032e576004356000818152600260205260409020546001600160a01b03161561096e576004611aff82600052600d602052604060002090565b0154908115611c7a57611b47611b4261088d611b3b611b28856000526012602052604060002090565b3360009081526020919091526040902090565b5460ff1690565b614685565b611bb8602083611b5684613246565b601354611b7b90611b6f9081906001600160a01b031681565b6001600160a01b031690565b6040516323b872dd60e01b81523360048201526001600160a01b039092166024830152604482019290925292839190829060009082906064820190565b03925af18015611c7557611bd491600091611c47575b506146e6565b611c13611c0633611bef846000526012602052604060002090565b9060018060a01b0316600052602052604060002090565b805460ff19166001179055565b60405191825233917f51a3d83436ccc0e8b49cf68572cd56b2a546dd8c7b43381fbea5bbb1496835d1908060208101611955565b611c68915060203d8111611c6e575b611c60818361242b565b8101906146d1565b38611bce565b503d611c56565b613861565b604051635cdc984d60e01b81526004810191909152602490fd5b3461032e57602036600319011261032e576004356000818152600260205260409020546001600160a01b031615610a7857611ccf3382614732565b8015611d01575b611cdf9061494e565b600052600b602052610467604060002054604051918291829190602083019252565b506000818152600d602052604090206002015460ff16611cd6565b3461032e57608036600319011261032e57600435611d38610546565b9060443591611d468361163e565b606435611d528161163e565b6000838152600260205260409020546001600160a01b03161561111957611d7883613246565b6001600160a01b03903390821603611ec257917fed6133e45d92afaf23ed76b65a2d239187b039cc66dcf993242e99210f6b1d9e611e8394926104679694831694611dc48615156145de565b611e88600e5480988196611ddf611dda8461461c565b600e55565b610e1a611dea612459565b8a81526001600160a01b038316602082015286151560408201528715156060820152611e2085600052600f602052604060002090565b81518155602082015160019190910180546001600160a01b0319166001600160a01b0392909216919091178155906040810151825460609092015161ffff60a01b1990921690151560a01b60ff60a01b161790151560a81b60ff60a81b16179055565b6135e0565b611ea084611e83876000526011602052604060002090565b6040805191151582529115156020820152a46040519081529081906020820190565b604051633907167960e21b815260048101859052602490fd5b3461032e57600036600319011261032e57600a546040516001600160a01b039091168152602090f35b3461032e57604036600319011261032e576001600160401b0360043581811161032e57611f3590369060040161160e565b909160243590811161032e57611f4f903690600401610adc565b92906000805b8481106121055750611f6690614989565b93600093845b818110611faa578686611f7e81614989565b9160005b828110611f975760405180610467868261076f565b80610d2d611fa59284614a0e565b611f82565b611fb5818387614b83565b356000818152600260205260409020546001600160a01b03161580156120cf575b6120c557611fee81600052600b602052604060002090565b549060005b82811061200b575050506120069061461c565b611f6c565b61202961091d61090d8361090886600052600b602052604060002090565b612037610c6a36898b6124a0565b61204b575b506120469061461c565b611ff3565b8a6000805b8c811061208b575b5015612065575b5061203c565b996120839161207882612046959d614a0e565b52610937818d614a0e565b98908a61205f565b6120958184614a0e565b51518051602080920120908551908151910120146120bb576120b69061461c565b612050565b5050600138612058565b506120069061461c565b506120dd61088d3383614b93565b8015611fd6575061210061088d600261095f84600052600d602052604060002090565b611fd6565b612110818686614b83565b356000818152600260205260409020546001600160a01b0316151580612168575b612145575b506121409061461c565b611f55565b6121409192610bbc61216192600052600b602052604060002090565b9190612136565b506121733382614b93565b806121315750612192600261095f83600052600d602052604060002090565b612131565b3461032e576000806003193601126104ef57604051908060018054916121bc83612fd2565b808652928281169081156104c557506001146121e2576104678561045b8187038261242b565b92508083527fb10e2d527612073b26eecdfd717e6a320cf44b4afac2b0732d9fcbe2b7fa0cf65b82841061222457505050810160200161045b8261046761044b565b80546020858701810191909152909301928101612209565b3461032e57604036600319011261032e57612255610530565b6024356122618161163e565b6001600160a01b0382169182156122e0578161229f6122b09233600052600560205260406000209060018060a01b0316600052602052604060002090565b9060ff801983541691151516179055565b60405190151581527f17307eab39ab6107e8899845ad3d59bd9653f200f220920489ca2b5937696c3160203392a3005b604051630b61174360e31b815260048101849052602490fd5b3461032e57604036600319011261032e57600435600081815260026020526040902054602435906001600160a01b0316156119735761233782613246565b336001600160a01b03909116036123a55761181b7f1933109b5c774b8c03e2bdff7661bc5e90c1ef6fbd7917a7ef2499030c2394f49161238e612389600261095f87600052600d602052604060002090565b61462b565b8060046117f486600052600d602052604060002090565b60405163779163db60e11b815260048101839052602490fd5b634e487b7160e01b600052604160045260246000fd5b60c081019081106001600160401b038211176123ef57604052565b6123be565b61010081019081106001600160401b038211176123ef57604052565b602081019081106001600160401b038211176123ef57604052565b90601f801991011681019081106001600160401b038211176123ef57604052565b60405190611655826123d4565b60405190608082018281106001600160401b038211176123ef57604052565b60405190611655826123f4565b6001600160401b0381116123ef57601f01601f191660200190565b9291926124ac82612485565b916124ba604051938461242b565b82948184528183011161032e578281602093846000960137010152565b3461032e57608036600319011261032e576124f0610530565b6124f8610546565b90604435606435926001600160401b03841161032e573660238501121561032e576125306106009436906024816004013591016124a0565b92610f898383836130b0565b6020815260c060a061257261255c855184602087015260e08601906103bb565b6020860151858203601f190160408701526103bb565b93604081015115156060850152600180831b036060820151166080850152608081015182850152015191015290565b3461032e57602036600319011261032e5760043560008060a06040516125c6816123d4565b6060815260606020820152826040820152826060820152826080820152015261260482600052600260205260018060a01b0360406000205416151590565b61262157604051637399e49160e01b815260048101839052602490fd5b604081610467936126389352600d602052206148ed565b6040519182918261253c565b3461032e57604036600319011261032e576020610f51612662610546565b60043561483d565b3461032e57602036600319011261032e57612686600435613246565b50600060405161269581612410565b526104676040516126a581612410565b600081526040519182916020835260208301906103bb565b90815180825260208080930193019160005b8281106126dd575050505090565b83511515855293810193928101926001016126cf565b929061270b909594929560808552608085019061065f565b6020908481038286015281808851928381520197019160005b828110612753575050505084612745918461040c96970360408601526126bd565b9160608184039101526126bd565b83516001600160a01b031689529781019792810192600101612724565b3461032e57602036600319011261032e576004356000818152600260205260409020546001600160a01b03161561096e576127b5906000526011602052604060002090565b805490600090815b8381106128b557506127ce82614c4a565b916127d881614c4a565b936127eb6127e583614c4a565b92614c4a565b92600090815b838110612809576040518061046788888c8c856126f3565b612819610e77610e6d83856132f7565b805461282f575b5061282a9061461c565b6127f1565b836128a960016128ae938b612855879961284f610e6d61282a9a8c6132f7565b92614a0e565b52015461287e6001600160a01b03821661286f858f614a0e565b6001600160a01b039091169052565b60ff9061289b828260a01c16612894868d614a0e565b9015159052565b60a81c16612894838b614a0e565b61461c565b9290612820565b6128c5610e77610e6d83856132f7565b546128d9575b6128d49061461c565b6127bd565b916128e66128d49161461c565b9290506128cb565b3461032e57604036600319011261032e576004356024356001600160401b03811161032e5761292190369060040161160e565b6000838152600260205260409020549092906001600160a01b03161561096e5761294b3382614732565b8015612aa1575b61295b9061494e565b61296f81600052600b602052604060002090565b549161297a83614989565b92600094855b828110612a11575050505061299483614989565b9160005b8481106129fe575050610467927f9b1c441ad9f47b62e532c79b3794fa85444c1a503346a65cd85501508cd2bc65604051806111f6339482919060408352600d60408401526c6d756c7469706c652d7461677360981b6060840152602060808401930152565b80610d2d612a0c9284614a0e565b612998565b612a2f61091d61090d8361090889600052600b602052604060002090565b600160005b848110612a6b575b50612a51575b50612a4c9061461c565b612980565b87612a6491611276612a4c949a8a614a0e565b9690612a42565b612a8561088d612a7f6110b884898c614cc6565b85614b35565b612a9757612a929061461c565b612a34565b5050600038612a3c565b5061295b612abe600261095f84600052600d602052604060002090565b9050612952565b3461032e57606036600319011261032e57600460243581356044356001600160401b03811161032e57612afb9036908501610adc565b600083815260026020526040902054919490916001600160a01b031615612cb7576000848152600260205260409020546001600160a01b031615612c9b57612b4661088d338561483d565b612c7d57612b5761088d338661483d565b612c6157507ff5a2de3bb50528fdfd306fb128b19d95e1ebfe38d74cca6fa80fb1a1b25345d390612b893682876124a0565b6020815191012090612c2b612ba885600052600b602052604060002090565b92612bcb612bc6828660019160005201602052604060002054151590565b61434d565b612bdf87600052600b602052604060002090565b612c04612bff61088d848460019160005201602052604060002054151590565b614399565b612c2582612c1f61091d82600052600c602052604060002090565b9661452f565b506142f6565b50612c5c602083015192612c4260a0820151151590565b9060e060c082015191015191604051958695339b876144dd565b0390a4005b604051633907167960e21b815290810184815281906020010390fd5b604051633907167960e21b8152908101928352918291506020010390fd5b604051637399e49160e01b815290810184815281906020010390fd5b604051637399e49160e01b8152908101928352918291506020010390fd5b90602061040c928181520190610713565b3461032e5760208060031936011261032e576004356000818152600260205260409020546001600160a01b03161561096e57612d223382614732565b8015612e6a575b612d329061494e565b612d4681600052600b602052604060002090565b5491612d59612d5484613df6565b614c7c565b9260009283905b828210612d9e578585612d7281614c7c565b9160005b828110612d8b57604051806104678682612cd5565b80610d2d612d999284614a0e565b612d76565b9391612dc161091d61090d84610908899a989a600052600b602052604060002090565b6080019460005b86518051821015612e525781612ddd91614a0e565b516000898201815b888110612e1e575b505015612e04575b50612dff9061461c565b612dc8565b85612e1791611276612dff94988a614a0e565b9490612df5565b612e28818b614a0e565b518c81519101208451832014612e4657612e419061461c565b612de5565b50505060013880612ded565b505091612e649193955095939561461c565b90612d60565b50612d32612e87600261095f84600052600d602052604060002090565b9050612d29565b3461032e57604036600319011261032e57602060ff6109ce612eae610530565b612eb6610546565b6001600160a01b0391821660009081526005865260408082209290931681526020919091522090565b3461032e57602036600319011261032e57612ef8610530565b612f00612f6d565b6001600160a01b03908116908115612f5457600a54826bffffffffffffffffffffffff60a01b821617600a55167f8be0079c531659141344cd1fd0a4f28419497f9722a3daafe3b4186f6b6457e0600080a3005b604051631e4fbdf760e01b815260006004820152602490fd5b600a546001600160a01b03163303612f8157565b60405163118cdaa760e01b8152336004820152602490fd5b6001600160a01b03168015612fb957600052600360205260406000205490565b6040516322718ad960e21b815260006004820152602490fd5b90600182811c92168015613002575b6020831014612fec57565b634e487b7160e01b600052602260045260246000fd5b91607f1691612fe1565b906040519182600082549261302084612fd2565b90818452600194858116908160001461308d575060011461304a575b50506116559250038361242b565b9093915060005260209081600020936000915b8183106130755750506116559350820101388061303c565b8554888401850152948501948794509183019161305d565b91505061165594506020925060ff191682840152151560051b820101388061303c565b6001600160a01b038281169290919083156132095760008581526002602052604090205485906001600160a01b031694336131f9575b84861695861580156131cb575b6001600160a01b03851660009081526003602052604090206001815401905561312a856105e1866000526002602052604060002090565b8383897fddf252ad1be2c89b69c2b068fc378daa952ba7f163c4a11628f55a4df523b3ef600080a4156131ab575061316182613619565b850361319b575b5050169182820361317857505050565b60649350604051926364283d7b60e01b8452600484015260248301526044820152fd5b6131a49161357b565b3884613168565b828288036131bb575b5050613161565b6131c491613671565b38826131b4565b6131d484613222565b6001600160a01b038216600090815260036020526040902080546000190190556130f3565b61320482338861347d565b6130e6565b604051633250574960e11b815260006004820152602490fd5b613236906000526004602052604060002090565b80546001600160a01b0319169055565b6000818152600260205260409020546001600160a01b0316908115613269575090565b60249060405190637e27328960e01b82526004820152fd5b61328a81612f99565b8210156132b65760018060a01b0316600052600660205260406000209060005260205260406000205490565b60405163295f44f760e21b81526001600160a01b039190911660048201526024810191909152604490fd5b634e487b7160e01b600052603260045260246000fd5b805482101561330f5760005260206000200190600090565b6132e1565b6008548110156133495760086000527ff3f7a9fe364faab93b216da50a3214154f22a0a2b415b23a84c8169e8b636ee3015490565b6044906040519063295f44f760e21b8252600060048301526024820152fd5b6000828152600260205260409020546001600160a01b0316916001600160a01b03808416801591821561344f575b841691821590811561342b575b6133bb866105e1876000526002602052604060002090565b8484847fddf252ad1be2c89b69c2b068fc378daa952ba7f163c4a11628f55a4df523b3ef600080a415613415576133f184613619565b1561340257505061040c9150613726565b0361340c57505090565b61040c9161357b565b8183146133f1576134268487613671565b6133f1565b6001600160a01b0386166000908152600360205260409020600181540190556133a3565b61345884613222565b6001600160a01b03861660009081526003602052604090208054600019019055613396565b6001600160a01b039082821680151590816134e8575b501561349f5750505050565b166134bd57604051637e27328960e01b815260048101839052602490fd5b60405163177e802f60e01b81526001600160a01b039190911660048201526024810191909152604490fd5b82841680821492508215613520575b508115613506575b5038613493565b9050846000526004602052826040600020541614386134ff565b909150600052600560205260ff61354d8560406000209060018060a01b0316600052602052604060002090565b541690386134f7565b634e487b7160e01b600052601160045260246000fd5b60001981019190821161160957565b9061358582612f99565b600019810192908311611609576001600160a01b031660009081526006602090815260408083208584528252808320849055928252600790522055565b916135dc9183549060031b91821b91600019901b19161790565b9055565b805490600160401b8210156123ef57816136029160016135dc940181556132f7565b819391549060031b91821b91600019901b19161790565b60085481600052600960205280604060002055600160401b8110156123ef57600181018060085581101561330f5760086000527ff3f7a9fe364faab93b216da50a3214154f22a0a2b415b23a84c8169e8b636ee30155565b9061367b82612f99565b9160009282845260209060078252604093848620549360018060a01b0316865260068352848620938281036136bf575b508552600782528484812055845252812055565b82875284845285872054818852808789205587526007845285872055386136ab565b634e487b7160e01b600052603160045260246000fd5b8054908115613721576000199182019161371183836132f7565b909182549160031b1b1916905555565b6136e1565b600880546000199283820182811161160957600092828452600960205280604085205492101561330f578484527ff3f7a9fe364faab93b216da50a3214154f22a0a2b415b23a84c8169e8b636ee292838201549183101561330f5784926137c26137d39388865280837ff3f7a9fe364faab93b216da50a3214154f22a0a2b415b23a84c8169e8b636ee301556000526009602052604060002090565b556000526009602052604060002090565b558254938415613721578401938085101561330f57838352015555565b9081602091031261032e575161040c8161031c565b61040c939260809260018060a01b0316825260006020830152604082015281606082015201906103bb565b6001600160a01b03918216815291166020820152604081019190915260806060820181905261040c929101906103bb565b6040513d6000823e3d90fd5b3d15613898573d9061387e82612485565b9161388c604051938461242b565b82523d6000602084013e565b606090565b91929092833b6138ae575b50505050565b6138d2916020916040519384928392630a85bd0160e11b9788855260048501613805565b038160006001600160a01b0388165af160009181613966575b5061392a57826138f961386d565b805191908261392357604051633250574960e11b81526001600160a01b0383166004820152602490fd5b9050602001fd5b6001600160e01b031916036139435750388080806138a8565b604051633250574960e11b81526001600160a01b03919091166004820152602490fd5b61398891925060203d811161398f575b613980818361242b565b8101906137f0565b90386138eb565b503d613976565b92939193843b6139a8575b5050505050565b6020916139cb6040519485938493630a85bd0160e11b9889865260048601613830565b038160006001600160a01b0388165af160009181613a0c575b506139f257826138f961386d565b6001600160e01b03191603613943575038808080806139a1565b613a2591925060203d811161398f57613980818361242b565b90386139e4565b9190820180921161160957565b818110613a44575050565b60008155600101613a39565b9190601f8111613a5f57505050565b611655926000526020600020906020601f840160051c83019310613a8b575b601f0160051c0190613a39565b9091508190613a7e565b91909182516001600160401b0381116123ef57613abc81613ab68454612fd2565b84613a50565b602080601f8311600114613af8575081929394600092613aed575b50508160011b916000199060031b1c1916179055565b015190503880613ad7565b90601f19831695613b0e85600052602060002090565b926000905b888210613b4b57505083600195969710613b32575b505050811b019055565b015160001960f88460031b161c19169055388080613b28565b80600185968294968601518155019501930190613b13565b90805180516001600160401b0381116123ef57613b8a81613b848654612fd2565b86613a50565b6020918290601f8311600114613c4557928260049593613bd09360a096600092613c3a575b50508160011b916000199060031b1c19161786555b82015160018601613a95565b613c2960028501613bf9613be76040850151151590565b829060ff801983541691151516179055565b60608301516001600160a01b03168154610100600160a81b03191660089190911b610100600160a81b0316179055565b608081015160038501550151910155565b015190503880613baf565b90601f19831691613c5b87600052602060002090565b9260005b818110613ca4575093613bd09360a096936001938360049a9810613c8b575b505050811b018655613bc4565b015160001960f88460031b161c19169055388080613c7e565b929386600181928786015181550195019301613c5f565b908060209392818452848401376000828201840152601f01601f1916010190565b9290613cf59061040c9593604086526040860191613cbb565b926020818503910152613cbb565b91602061040c938181520191613cbb565b15613d1b57565b60405162461bcd60e51b815260206004820152601d60248201527f46696c6520616c72656164792065786973747320696e20666f6c6465720000006044820152606490fd5b6001600160401b0381116123ef5760051b60200190565b92919092613d8484613d60565b91613d92604051938461242b565b829480845260208094019060051b83019282841161032e5780915b848310613dbc57505050505050565b82356001600160401b03811161032e57820184601f8201121561032e578691613deb86838580953591016124a0565b815201920191613dad565b90600a820291808304600a149015171561160957565b613e168154612fd2565b9081613e20575050565b81601f60009311600114613e32575055565b908083918252613e51601f60208420940160051c840160018501613a39565b5555565b90600160401b81116123ef57815491818155828210613e7357505050565b600052602060002091820191015b818110613e8c575050565b80613e98600192613e0c565b01613e81565b90805190613eac8284613e55565b600092835260208084209091849083015b848610613ecc57505050505050565b805180516001600160401b0381116123ef578591613ef482613eee8854612fd2565b88613a50565b8290601f8311600114613f3c579180600195928695948892613f31575b5050600019600383901b1c191690841b1786555b01930195019491613ebd565b015190503880613f11565b90601f19831691613f5288600052602060002090565b92875b818110613f955750916001969391858897969410613f7c575b505050831b83018655613f25565b015160001960f88460031b161c19169055388080613f6e565b8284015185558a966001909501949384019301613f55565b600760e061165593613fc0815185613a95565b613fd1602082015160018601613a95565b6040810151600285015560608101516003850180546001600160a01b0319166001600160a01b03909216919091179055614012608082015160048601613e9e565b61403761402260a0830151151590565b600586019060ff801983541691151516179055565b61404860c082015160068601613a95565b01519101613a95565b999795929b9a9896949390614072906140839360c08d5260c08d0191613cbb565b9060209c8d8c8403908d0152613cbb565b99888b0360408a0152818b52808b019a818360051b8201019b846000925b8584106140e357505050505050509161040c9697916140c86140d594606089019015159052565b8683036080880152613cbb565b9260a0818503910152613cbb565b9091929394959d8e601f1983830301855235601e198436030181121561032e57830186813591016001600160401b03821161032e57813603811361032e578792839261412e92613cbb565b9f01969594600101930191906140a1565b99949a959096919a98939897929761416f61088d8c600052600260205260018060a01b0360406000205416151590565b6142dd5761418061088d338d61483d565b6142c4578b156142a957614195368d8a6124a0565b80519060200120806141b18d600052600b602052604060002090565b600091825260010160205260409020546141cb9015613d14565b6141d3612478565b6141de368f8c6124a0565b81526141eb368d8d6124a0565b6020820152426040820152336060820152614207368585613d77565b608082015284151560a082015261421f3688886124a0565b60c082015261422f368a8a6124a0565b60e082015261424882600052600c602052604060002090565b9061425291613fad565b6142668c600052600b602052604060002090565b90614270916142f6565b50604051998a99339d6142839a8c614051565b037f115437a80f41d58d89a2dd7cf51172c46e28cb919affa34036f3637be484623991a3565b60405162caca1560e41b81528061061a8e8b60048401613d03565b604051633907167960e21b8152600481018c9052602490fd5b604051637399e49160e01b8152600481018c9052602490fd5b600082815260018201602052604090205461434657805490600160401b8210156123ef578261432f6136028460018096018555846132f7565b905580549260005201602052604060002055600190565b5050600090565b1561435457565b60405162461bcd60e51b815260206004820152601f60248201527f46696c65206e6f7420666f756e6420696e20736f7572636520666f6c646572006044820152606490fd5b156143a057565b60405162461bcd60e51b815260206004820152602960248201527f46696c6520616c72656164792065786973747320696e2064657374696e61746960448201526837b7103337b63232b960b91b6064820152608490fd5b90815461440381613d60565b92614411604051948561242b565b818452600090815260208082208186015b848410614430575050505050565b600183819261443e8561300c565b815201920193019290614422565b906144d6600761445a612478565b936144648161300c565b85526144726001820161300c565b60208601526002810154604086015260038101546001600160a01b031660608601526144a0600482016143f7565b60808601526144bf6144b6600583015460ff1690565b151560a0870152565b6144cb6006820161300c565b60c08601520161300c565b60e0830152565b9490614521936144fe61450c9261040c99979560a08a5260a08a0191613cbb565b9087820360208901526103bb565b911515604086015284820360608601526103bb565b9160808184039101526103bb565b60018101918060005282602052604060002054928315156000146145d5576000199284840190858211611609578054948501948511611609576000958583614592976145839503614598575b5050506136f7565b90600052602052604060002090565b55600190565b6145bc6113fa916145ac6145cc94876132f7565b90549060031b1c928391876132f7565b8590600052602052604060002090565b5538808061457b565b50505050600090565b156145e557565b60405162461bcd60e51b815260206004820152600f60248201526e496e76616c6964206772616e74656560881b6044820152606490fd5b60001981146116095760010190565b1561463257565b60405162461bcd60e51b815260206004820152602560248201527f43616e206f6e6c792073657420707269636520666f72207075626c696320666f6044820152646c6465727360d81b6064820152608490fd5b1561468c57565b60405162461bcd60e51b815260206004820152601760248201527f416c7265616479206861732070616964206163636573730000000000000000006044820152606490fd5b9081602091031261032e575161040c8161163e565b156146ed57565b60405162461bcd60e51b815260206004820152601760248201527f5061796d656e74207472616e73666572206661696c65640000000000000000006044820152606490fd5b6000818152600260205260409020546001600160a01b03161561096e5761475881613246565b6001600160a01b038381169116146147ec576001600160a01b03821660009081526010602052604081208054915b8281106147f3575050506147a9600261095f83600052600d602052604060002090565b6147b4575050600090565b60046147ca82600052600d602052604060002090565b0154156147ec5761040c91611bef611b3b926000526012602052604060002090565b5050600190565b614803610e77610e6d83856132f7565b84815414908161482b575b506148215761481c9061461c565b614786565b5050505050600190565b6001015460a01c60ff1690503861480e565b6000818152600260205260409020549091906001600160a01b0316156119735761486682613246565b6001600160a01b038281169116146147ec576001600160a01b03166000908152601060205260408120805492915b8381106148a45750505050600090565b6148b4610e77610e6d83856132f7565b8381541490816148db575b506148d2576148cd9061461c565b614894565b50505050600190565b6001015460a81c60ff169050386148bf565b906040516148fa816123d4565b60a0600482946149098161300c565b84526149176001820161300c565b6020850152600281015460ff81161515604086015260081c6000196001851b01166060850152600381015460808501520154910152565b1561495557565b60405162461bcd60e51b815260206004820152600c60248201526b155b985d5d1a1bdc9a5e995960a21b6044820152606490fd5b9061499382613d60565b6040906149a28251918261242b565b83815280936149b3601f1991613d60565b0191600091825b8481106149c8575050505050565b60209083516149d6816123f4565b606080825283908082840152878784015287818401528060808401528760a08401528060c084015260e08301528285010152016149ba565b805182101561330f5760209160051b010190565b90610e6d916132f7565b15614a3357565b60405162461bcd60e51b815260206004820152601860248201527f46696c65206e6f7420666f756e6420696e20666f6c64657200000000000000006044820152606490fd5b614a8181613e0c565b6001614a8e818301613e0c565b6000908160028401558160038401556004830180549083815581614ace575b505050816007916005611655940155614ac860068201613e0c565b01613e0c565b835260208320908101905b81811015614aad5780614aec8492613e0c565b01614ad9565b9161040c9391614b0a91604085526040850191613cbb565b9160208184039101526103bb565b939291602091614b3091604087526040870191613cbb565b930152565b9080516020809201209060005b60808401518051821015614b7957614b5b828592614a0e565b51838151910120146148d257614b7260809161461c565b9050614b42565b5050505050600090565b919081101561330f5760051b0190565b6000818152600260205260409020546001600160a01b03161561434657614bb981613246565b6001600160a01b038381169116146147ec576001600160a01b03821660009081526010602052604081208054915b828110614c0a575050506147a9600261095f83600052600d602052604060002090565b614c1a610e77610e6d83856132f7565b848154149081614c38575b5061482157614c339061461c565b614be7565b6001015460a01c60ff16905038614c25565b90614c5482613d60565b614c61604051918261242b565b8281528092614c72601f1991613d60565b0190602036910137565b90614c8682613d60565b614c93604051918261242b565b8281528092614ca4601f1991613d60565b019060005b828110614cb557505050565b806060602080938501015201614ca9565b919081101561330f5760051b81013590601e198136030182121561032e5701908135916001600160401b03831161032e57602001823603811361032e57919056fea26469706673582212202d4d307adafbcc02aaff6a7cac98a03b14bafd05d74d3ae2dd58a5cf8c83eaee64736f6c63430008140033",
  "linkReferences": {},
  "deployedLinkReferences": {}
}